:020000040800F2
:10E0000060BB002009E20008B1040108F90301081F
:10E010008D040108D1FD0008351E01080000000034
:10E0200000000000000000000000000065E10008A2
:10E03000DDFE000800000000A9E10008B911010898
:10E040009D1F0108CD09010823E200086D0E01089B
:10E0500023E2000823E2000829FF000823E2000869
:10E0600023E2000823E2000823E2000823E200087C
:10E0700023E2000831FE000823E2000859FE0008F0
:10E0800023E2000823E2000823E2000823E200085C
:10E0900023E2000823E2000823E2000823E200084C
:10E0A00023E2000823E2000823E2000823E200083C
:10E0B00045120108A912010823E2000823E2000822
:10E0C00023E2000823E2000823E2000823E200081C
:10E0D00023E20008CD19010823E20008991A01087B
:10E0E00023E20008B90D010823E200080000000047
:10E0F0000000000000000000000000000000000020
:10E10000000000000000000023E2000823E20008F5
:10E110000919010823E2000823E2000823E20008AD
:10E1200023E2000823E2000823E2000823E20008BB
:10E1300023E2000823E2000823E2000823E20008AB
:10E1400023E2000823E2000823E2000823E200089B
:10E15000DFF80CD000F0F0FB0048004781300108E8
:10E1600060BB0020204B19680868B0E8F00F80F30E
:10E170000988BFF36F8F4FF0000080F311884EF0D5
:10E180000D0E70470000000006480068006880F32C
:10E19000088862B661B6BFF34F8FBFF36F8F00DFA1
:10E1A00000BF00BF08ED00E0EFF30980BFF36F8F01
:10E1B0000D4B1A6820E9F00F106008B54FF0100001
:10E1C00080F3118806F0F6FC4FF0000080F3118810
:10E1D000BDE8084019680868B0E8F00F80F30988C6
:10E1E000BFF36F8F704700BFDC040020EFF3118096
:10E1F0004FF0100181F31188704780F31188704748
:10E20000EFF3058070470000064880470648004746
:10E21000FEE7FEE7FEE7FEE7FEE7FEE7FEE7FEE7D6
:10E22000FEE7FEE7D911010851E1000840EA0103C9
:10E230009B0703D009E008C9121F08C0042AFAD2BC
:10E2400003E011F8013B00F8013B521EF9D2704780
:10E25000D2B201E000F8012B491EFBD27047002228
:10E26000F6E710B513460A4604461946FFF7F0FFD5
:10E27000204610BD80EA010210B502F000434000C4
:10E2800022D04A001FD0010E01EB1261C0F35600EC
:10E29000C2F3560240F4000042F40002A0FB022048
:10E2A00000047F39140400D0401C50EA124001D40D
:10E2B0004000491EC2B20C0604EBD010401C4008BE
:10E2C000802A02D003E0002010BD20F001000029C8
:10E2D00000DA0020184310BD2DE9FE4F804681EA88
:10E2E0000300C00F0C46009021F0004123F00045D0
:10E2F000B8EB0200A94105D24046214690461C4693
:10E300000B46024623F00040104347D0270DC7F3C9
:10E310000A00C3F30A510290401A019040286BDAB8
:10E32000C3F3130040F4801B0098924620B10023F1
:10E33000D2EB030A63EB0B0B01985946C0F1400284
:10E34000504600F004FA06460D4650465946019ADA
:10E3500000F01CFA10EB08006141002487EA11521A
:10E3600084EAE7731A4340D0009A62B3019A012A03
:10E370004FEA075215DC001B61EB02014FF000422F
:10E3800002EA0752CDE90042001C41F580113246F5
:10E390002B4600F053FA03B0BDE8F08F404621460B
:10E3A000F9E7001B61EB0201001C41F58013001826
:10E3B0005B412018A2F5001747EB030140EAD57036
:10E3C000B6196D4111E06D084FEA360645EAC07591
:10E3D0004FEA0752001B61EB0201001C41F580115E
:10E3E00049084FEA30000019514132462B4603B02C
:10E3F000BDE8F04F00F013BA00980122400000235E
:10E40000D0EB020263EBE073009821464FEAE07420
:10E41000B8EB000061EB0401E9E783F000435BE740
:10E4200081F0004158E72DE9FE4F81EA030404F032
:10E43000004421F0004100944FF0000B23F0004312
:10E4400050EA01045ED052EA03045BD0C3F30A54DD
:10E45000C1F30A552C44A4F2F3340194A0FB0254F6
:10E46000C1F3130141F48011C3F3130343F4801388
:10E4700001FB024400FB034E840A970A44EA8154DC
:10E4800047EA8357A4FB076802958D0A05FB0785B9
:10E490004FEA932C04FB0C542705029D4FEA0658C3
:10E4A00047EA1637B5EB08056EEB070C870E920EA0
:10E4B00047EA811742EA8312A7FB0201B6EB0B0180
:10E4C00064EB00042B0D43EA0C335E1844EB1C5044
:10E4D000DA465146E7FB0201C5F313044FEA0B335A
:10E4E00043EA14534FEA0432019C43EA0603A4F1C1
:10E4F0000C040294009CCDE900B400F09FF903B035
:10E50000BDE8F08F00200146F9E72DE9F04D81EAE2
:10E51000030404F0004B21F0004514464FF0000ABC
:10E5200023F0004150EA050220D054EA01021DD038
:10E53000C5F30A570246C5F31303C1F31300C1F331
:10E540000A5640F4801543F48013A7EB0608101B0D
:10E55000D64608F2FD3873EB050002D308F1010836
:10E5600001E092185B41B8F1000F03DA0020014688
:10E57000BDE8F08D00204FF48011064684460EE081
:10E58000171B73EB050705D3121B63EB050306434B
:10E590004CEA010C49084FEA300092185B4150EAFE
:10E5A0000107EDD152EA030012D082EA040083EAA7
:10E5B0000501084305D0101BAB4106D20122002300
:10E5C00006E000224FF0004302E06FF0010253101A
:10E5D0001AEB06004CEB085110EB0A0041EB0B0163
:10E5E000BDE8F04D00F01BB9C10F80EAE0700844AF
:10E5F000CA079623002100F0E4B80EB540F233417B
:10E6000002910021CDE900110A460B4600F016F9EF
:10E6100003B000BD20F00040C10DC0F3160040F46F
:10E6200000007F2901DA00207047962903DCC1F140
:10E630009601C840704796398840704770B5C1F35D
:10E640000A5201F000450024C1F3130140F2FF33E8
:10E6500041F480119A4201DA002070BD40F2334348
:10E660009A42A2F2334203DC524200F07FF800E00B
:10E6700090402C43F1D0404270BDC1F30A5210B516
:10E68000C1F3130140F2FF3341F480119A4201DAE1
:10E69000002010BD40F233439A42A2F2334203DC21
:10E6A000524200F063F810BD904010BD002801DB1D
:10E6B000C0F10040002901DBC1F1004181427047F7
:10E6C00030B50B46014600202022012409E021FA42
:10E6D00002F59D4205D303FA02F5491B04FA02F53F
:10E6E0002844151EA2F10102F1DC30BD2DE9F05FD6
:10E6F0000546002092469B468846064681464024B1
:10E700001BE0284641464746224600F02FF8534674
:10E710005A46C01A914110D311461846224600F0BD
:10E7200016F82D1A67EB01084F46224601200021FA
:10E7300000F00DF817EB00094E41201EA4F1010472
:10E74000DFDC484631462A464346BDE8F09F202A92
:10E7500004DB203A00FA02F1002070479140C2F138
:10E76000200320FA03F3194390407047202A04DB6A
:10E77000203A21FA02F00021704721FA02F3D0403A
:10E78000C2F120029140084319467047202A06DB57
:10E79000CB17203A41FA02F043EAE07306E041FA6F
:10E7A00002F3D040C2F1200291400843194670475D
:10E7B0000029A8BF7047401C490008BF20F0010095
:10E7C000704710B4B0FA80FC00FA0CF050EA010473
:10E7D00004BF10BC704749B1CCF1200421FA04F405
:10E7E00011FA0CF118BF012121430843A3EB0C01DE
:10E7F000CB1D4FEA00614FEA102042BF002010BC41
:10E80000704700EBC35010440029A4BF10BC7047F0
:10E81000401C490008BF20F0010010BC704710B533
:10E82000141E73F1000408DA401C41F10001921833
:10E830005B411A4301D120F0010010BD2DE9F04DDC
:10E8400092469B4611B1B1FA81F202E0B0FA80F231
:10E8500020329046FFF77BFF04460F4640EA0A004D
:10E8600041EA0B0153465A46084313D0114653EA76
:10E87000010019D0C8F140025046FFF777FF054666
:10E880000E46504659464246FFF761FF084305D001
:10E89000012004E020463946BDE8F08D0020054304
:10E8A00046EAE0762C4337430A986305E40AA0EB76
:10E8B00008000022FD0A44EA47540A3002D500202D
:10E8C0000146E9E7010510196941DDE9084500192C
:10E8D0006941BDE8F04DA2E7C1F30A52C1F313014B
:10E8E00040F2FF3341F480119A4202DA00200146DF
:10E8F000704740F233439A42A2F2334202DC524262
:10E90000FFF734BFFFF723BF30B5041E71F10004D9
:10E9100004DB4FF00044404264EB0101141E73F12C
:10E92000000405DB1C464FF00043524263EB040336
:10E93000994208BF904230BD064C074D06E0E068A2
:10E9400040F0010394E8070098471034AC42F6D336
:10E95000FFF702FCE45C0108045D010870B58C1847
:10E9600010F8015B15F0070301D110F8013B2A11E3
:10E9700006D110F8012B03E010F8016B01F8016BD0
:10E980005B1EF9D12B0705D40023521E0DD401F8CC
:10E99000013BFAE710F8013BCB1A921C03E013F895
:10E9A000015B01F8015B521EF9D5A142D8D30020CA
:10E9B00070BD00002DE9F04F8BB000200590FE489F
:10E9C00001880088401CFC4A108005297EDB00205D
:10E9D000114608800121102003F0FAFA0121542089
:10E9E00003F0F6FA0020F549088007E0012005F061
:10E9F000DFFFF2480088401CF0490880EF4800889B
:10EA00006428F3DB0020EE4908801BE0EC48018815
:10EA10000088401CEA4A1080C82903DB012002F06C
:10EA200031F87DE00020E549088007E0012005F08D
:10EA3000BFFFE2480088401CE0490880DF480088AA
:10EA40003228F3DBDF4800680028DFD101213820BD
:10EA500003F0BEFA0020D949088007E0012005F044
:10EA6000A7FFD6480088401CD4490880D3480088B6
:10EA70006428F3DB0020D24908801BE0D0480188DD
:10EA80000088401CCE4A1080C82903DB012001F019
:10EA9000F9FF45E00020C949088007E0012005F0A2
:10EAA00087FFC6480088401CC4490880C3480088C6
:10EAB0003228F3DBC34800680028DFD1C249086070
:10EAC00002F016FA834602F013FA00E023E28246CF
:10EAD0000120BE49C1F88801BBF1FF0F02D1BAF194
:10EAE000FF0F05D0BBF1000F06D1BAF1000F03D123
:10EAF000012001F0C7FF13E05146584604F0EAF93F
:10EB0000ADF80800BDF90800B1490864BDF9082056
:10EB1000B0A106A803F0DAFA06A800F07FFA00BF59
:10EB20000121112003F054FA01215C2003F050FA76
:10EB30000020A249088007E0012005F039FF9F4826
:10EB40000088401C9D4908809C4800886428F3DBAD
:10EB500000209B4908801BE0994801880088401CE0
:10EB6000974A1080C82903DB012001F08BFF92E057
:10EB700000209249088007E0012005F019FF8F4826
:10EB80000088401C8D4908808C4800883228F3DBBF
:10EB90008C4800680028DFD10121392003F018FAE1
:10EBA00000208649088007E0012005F001FF834826
:10EBB0000088401C81490880804800886428F3DB75
:10EBC00000207F4908801BE07D4801880088401CA8
:10EBD0007B4A1080C82903DB012001F053FF5AE073
:10EBE00000207649088007E0012005F0E1FE734827
:10EBF0000088401C71490880704800883228F3DB87
:10EC0000704800680028DFD16F49086002F070F991
:10EC1000834602F06DF9824601206C49C1F88801F3
:10EC2000BBF1FF0F02D1BAF1FF0F05D0BBF1000F0E
:10EC300006D1BAF1000F03D1012001F023FF2AE031
:10EC40004FF47F4000EA0B2040EA0A000590BDF82F
:10EC50001400FFF7D2FC80460022614BFFF7E3FB74
:10EC6000064600225F4BFFF750FC044600225E4B35
:10EC7000FFF74BFCCDE90001FFF7E0FC00B2ADF877
:10EC80000A00BDF90A2059A106A803F01FFA06A838
:10EC900000F0C4F900BF0221102003F099F902210D
:10ECA0005C2003F095F900204449088007E001202A
:10ECB00005F07EFE41480088401C404908803F48DE
:10ECC00000886428F3DB00203D4908801BE03C48B5
:10ECD00001880088401C3A4A1080C82903DB0220C2
:10ECE00001F0D0FEB8E000203449088007E00120A0
:10ECF00005F05EFE31480088401C304908802F48EE
:10ED000000883228F3DB2F48083000680028DED165
:10ED10000221382003F05CF900202849088007E030
:10ED2000012005F045FE25480088401C2349088045
:10ED3000224800886428F3DB0020214908801BE07A
:10ED40001F4801880088401C1D4A1080C82903DB29
:10ED5000022001F097FE7FE000201849088007E0BC
:10ED6000012005F025FE15480088401C1349088045
:10ED7000124800883228F3DB124808300068002867
:10ED8000DED110498431086002F0B2F8834602F007
:10ED9000AFF8824601201849C1F8A401BBF1FF0F6A
:10EDA00002D1BAF1FF0F05D0BBF1000F29D1BAF1A2
:10EDB000000F26D1022021E08204002084040020DC
:10EDC0008604002020812242888121420080214245
:10EDD000243700206169303D256420202020000078
:10EDE00000003B4000002040E0FFEF406169313D02
:10EDF00025642020202000000080224201F042FEF5
:10EE00002AE04FF47F4000EA0B2040EA0A00059018
:10EE1000BDF81400FFF7F1FB80460022704BFFF7AE
:10EE200002FB064600226F4BFFF76FFB04460022F1
:10EE30006D4BFFF76AFBCDE90001FFF7FFFB00B266
:10EE4000ADF80C00BDF90C2068A106A803F03EF94E
:10EE500006A800F0E3F800BF0221112003F0B8F883
:10EE600000215C2003F0B4F800206349088007E02B
:10EE7000012005F09DFD60480088401C5E49088027
:10EE80005D4800886428F3DB00205C4908801BE0B3
:10EE90005A4801880088401C584A1080C82903DB62
:10EEA000022001F0EFFD97E000205349088007E0C1
:10EEB000012005F07DFD50480088401C4E49088027
:10EEC0004D4800883228F3DB4D4800680028DFD128
:10EED0000221392003F07CF800204749088007E030
:10EEE000012005F065FD44480088401C4249088027
:10EEF000414800886428F3DB0020404908801BE07B
:10EF00003E4801880088401C3C4A1080C82903DB29
:10EF1000022001F0B7FD5FE000203749088007E0DC
:10EF2000012005F045FD34480088401C3249088026
:10EF3000314800883228F3DB314800680028DFD1EF
:10EF40002F497C31086001F0D3FF834601F0D0FFE8
:10EF5000824601202B49C1F8A401BBF1FF0F02D169
:10EF6000BAF1FF0F05D0BBF1000F06D1BAF1000FC7
:10EF700003D1022001F086FD2EE04FF47F4000EA2D
:10EF80000B2040EA0A000590BDF81400FFF735FB9E
:10EF9000044600221C4BFFF746FA06460022114B9E
:10EFA000FFF7B3FA804600220F4BFFF7AEFACDE928
:10EFB0000001FFF743FB00B2ADF80E00BDF90E00F3
:10EFC0001249C863BDF90E2011A106A803F07EF80E
:10EFD00006A800F023F800BF0BB0BDE8F08F0000DA
:10EFE00000C0724000002040E0FFEF406169323D08
:10EFF00025642020202000008404002086040020B6
:10F0000028812242008022420000F43F2437002061
:10F010006169333D25642020202000000FB438B5FD
:10F02000002405A800904FF480610848009B049AD2
:10F0300003F060F884B2002000902146034805F0F8
:10F04000DDF8204638BC5DF814FB000040050020C8
:10F0500008B50121FE4802F090FD0121FD4802F0B3
:10F060008CFD0121FC4802F088FD0121880702F097
:10F070003BF90121F94802F037F90121F84801F084
:10F080007DFF0121F74801F079FF01217D2001F08A
:10F090007BFD0121F44801F04BF90120ADF800009F
:10F0A00000208DF8030002208DF802006946EF4829
:10F0B00001F0B3F80220ADF8000000208DF8030045
:10F0C00002208DF802006946E84801F0A6F8042005
:10F0D000ADF8000010208DF8030002208DF802002A
:10F0E0006946E24801F099F80820ADF800001020C8
:10F0F0008DF8030003208DF802006946DB4801F01B
:10F100008CF81020ADF8000000208DF803000320DB
:10F110008DF802006946D54801F07FF82020ADF84F
:10F12000000000208DF8030003208DF802006946DE
:10F13000CE4801F072F84020ADF8000000208DF8B4
:10F14000030003208DF802006946C84801F065F805
:10F150008020ADF8000000208DF8030003208DF81A
:10F1600002006946C14801F058F84FF48070ADF8CC
:10F17000000000208DF803006946BC4801F04DF8FE
:10F180004FF40070ADF8000003208DF80200182045
:10F190008DF803006946B54801F03FF84FF48060F0
:10F1A000ADF8000004208DF803006946AF4801F077
:10F1B00034F84FF40060ADF8000000208DF8030033
:10F1C0006946AA4801F029F84FF48050ADF80000D4
:10F1D00000208DF803006946A44801F01EF84FF4A2
:10F1E0000040ADF8000000208DF8030069469F48FC
:10F1F00001F013F80120ADF8000010208DF8030095
:10F2000002208DF802006946994801F006F80220B4
:10F21000ADF8000010208DF8030002208DF80200E8
:10F220006946934800F0F9FF0820ADF8000000207F
:10F230008DF8030002208DF8020069468C4800F02A
:10F24000ECFF1020ADF8000000208DF80300022034
:10F250008DF802006946864800F0DFFF2020ADF8F7
:10F26000000000208DF8030002208DF8020069469E
:10F270007F4800F0D2FF4020ADF8000000208DF85C
:10F28000030069467A4800F0C8FF8020ADF800000E
:10F2900000208DF803006946754800F0BEFF4FF46A
:10F2A0008070ADF8000000208DF8030069467048BA
:10F2B00000F0B3FF4FF40070ADF8000000208DF8AF
:10F2C000030069466A4800F0A8FF4FF48060ADF87B
:10F2D000000003208DF8020018208DF80300694615
:10F2E000634800F09AFF4FF40060ADF8000004207E
:10F2F0008DF8030069465E4800F08FFF4FF48050A0
:10F30000ADF8000003208DF8020018208DF80300EE
:10F310006946574800F081FF4FF40050ADF80000F7
:10F3200018208DF8030003208DF80200694650482C
:10F3300000F073FF4FF48040ADF8000048208DF8D6
:10F34000030003208DF802006946494800F065FF7C
:10F350004FF40040ADF8000018208DF803000320A2
:10F360008DF802006946424800F057FF0120ADF8D1
:10F37000000000208DF8030069463E4800F04DFF74
:10F380000220ADF8000000208DF8030069463948DE
:10F3900000F043FF0420ADF8000000208DF80300CA
:10F3A0006946344800F039FF0820ADF8000000201D
:10F3B0008DF8030069462F4800F02FFF1020ADF8AC
:10F3C000000000208DF8030002208DF8020069463D
:10F3D000284800F022FF2020ADF8000000208DF822
:10F3E00003006946234800F018FF4020ADF80000F4
:10F3F00000208DF8030069461E4800F00EFF8020B3
:10F40000ADF8000000208DF803006946194800F0AF
:10F4100004FF4FF48070ADF8000000208DF8030069
:10F420006946144800F0F9FE4FF40070ADF8000092
:10F4300000208DF8030069460E4800F0EEFE4FF400
:10F440008060ADF8000018208DF80300032013E061
:10F450000038014000480040004C004000040040DB
:10F460000030014000380040000230000008014038
:10F47000000C0140001001408DF802006946D94897
:10F4800000F0CBFE4FF40060ADF8000004208DF8D2
:10F4900003006946D34800F0C0FE4FF48050ADF839
:10F4A000000000208DF803006946CE4800F0B5FE4C
:10F4B0000120ADF8000000208DF8030002208DF837
:10F4C00002006946C84800F0A8FE0220ADF800001E
:10F4D00000208DF8030002208DF802006946C24822
:10F4E00000F09BFE0420ADF8000000208DF8030022
:10F4F00002208DF802006946BB4800F08EFE08200D
:10F50000ADF8000000208DF803006946B64800F011
:10F5100084FE1020ADF8000000208DF803000220CA
:10F520008DF802006946B04800F077FE2020ADF863
:10F53000000000208DF8030002208DF802006946CB
:10F54000A94800F06AFE4020ADF8000000208DF8C8
:10F55000030002208DF802006946A34800F05DFE1A
:10F560008020ADF8000000208DF8030069469E4819
:10F5700000F053FE4FF48070ADF8000048208DF885
:10F58000030003208DF802006946974800F045FE0D
:10F590004FF40070ADF8000010208DF80300032038
:10F5A0008DF802006946904800F037FE4FF4806005
:10F5B000ADF8000048208DF8030003208DF802000C
:10F5C0006946894800F029FE4FF40060ADF800005C
:10F5D00010208DF8030002208DF802006946824851
:10F5E00000F01BFE4FF48050ADF8000010208DF8A5
:10F5F000030002208DF8020069467B4800F00DFEF2
:10F600004FF40050ADF8000010208DF803000220E8
:10F610008DF802006946744800F0FFFD4FF4804009
:10F62000ADF8000000208DF8030069466E4800F038
:10F63000F4FD4FF40040ADF8000000208DF8030009
:10F640006946694800F0E9FD0120ADF8000000209E
:10F650008DF8030002208DF802006946634800F02F
:10F66000DCFD0220ADF8000000208DF803006946A3
:10F670005E4800F0D2FD0420ADF8000003208DF8B4
:10F68000020000208DF803006946584800F0C5FDCF
:10F690000820ADF8000003208DF8020000208DF84E
:10F6A00003006946514800F0B8FD1020ADF8000095
:10F6B00000208DF8030069464C4800F0AEFD202084
:10F6C000ADF8000000208DF803006946474800F0BF
:10F6D000A4FD4020ADF8000000208DF8030069462D
:10F6E000424800F09AFD8020ADF8000010208DF80F
:10F6F000030002208DF8020069463C4800F08DFDB1
:10F700004FF48070ADF8000010208DF80300022047
:10F710008DF802006946354800F07FFD4FF4007017
:10F72000ADF8000010208DF8030002208DF80200D3
:10F7300069462E4800F071FD4FF48060ADF800007E
:10F7400010208DF8030002208DF80200694627483A
:10F7500000F063FD4FF40060ADF8000004208DF868
:10F76000030003208DF802006946204800F055FD93
:10F770004FF48050ADF8000004208DF80300032002
:10F780008DF802006946194800F047FD4FF400501B
:10F79000ADF8000004208DF8030003208DF802006E
:10F7A0006946124800F039FD4FF48040ADF8000082
:10F7B00004208DF8030003208DF8020069460B48F1
:10F7C00000F02BFD4FF40040ADF8000004208DF850
:10F7D000030003208DF802006946044800F01DFD77
:10F7E00008BD000000100140001401400018014055
:10F7F00008B50C20ADF8000003208DF8020014209D
:10F800008DF803006946024800F007FD08BD0000BE
:10F810000018014010B57D2001F0B0FA08B101F0E8
:10F82000D3F945F2555000F02BFE062000F01CFEE7
:10F830004FF47A6000F01EFE00F00EFE00F004FEB1
:10F8400001A0FFF7EBFB10BD3EE5BC80E590AFE704
:10F850009C8BE997A8E78B97210D0A0008B54FF418
:10F8600060414FF0006000F073FE4FF4407000F014
:10F8700065FE06208DF8000000208DF801008DF84F
:10F88000020001208DF80300684600F01FFE2920C9
:10F890008DF8000001208DF8010000208DF8020095
:10F8A00001208DF80300684600F010FE25208DF839
:10F8B000000002208DF8010000208DF802000120D8
:10F8C0008DF80300684600F001FE27208DF8000047
:10F8D00003208DF8010000208DF8020001208DF832
:10F8E0000300684600F0F2FD1D208DF800000420A2
:10F8F0008DF8010000208DF8020001208DF8030032
:10F90000684600F0E3FD1C208DF8000005208DF80E
:10F91000010000208DF8020001208DF803006846E8
:10F9200000F0D4FD35208DF8000006208DF8010090
:10F9300000208DF8020001208DF80300684600F0D9
:10F94000C5FD34208DF8000007208DF8010000204F
:10F950008DF8020001208DF80300684600F0B6FD26
:10F9600014208DF8000008208DF8010000208DF88B
:10F97000020001208DF80300684600F0A7FD40203A
:10F980008DF8000009208DF8010000208DF802009C
:10F9900001208DF80300684600F098FD08BD0000C6
:10F9A0002DE9FE4304460D463548844202D03548D1
:10F9B000844207D1204603F031F88146012101F04D
:10F9C000E3F806E0204603F029F88146012101F022
:10F9D000BBF82B4884420BD02A48844208D02A48DE
:10F9E000844205D02948844202D02948844202D169
:10F9F0002848066801E027480668642D0AD242F2CA
:10FA00000F7842F21070B6FBF0F0B0FBF5F0401E3C
:10FA100087B213E040F6B830854209D24FF0630850
:10FA20006420B6FBF0F0B0FBF5F0401E87B205E0B5
:10FA30004FF00008B6FBF5F0401E87B2ADF8047039
:10FA4000ADF800800020ADF80600ADF802008DF89A
:10FA500008006946204601F06DFC0121204601F0B6
:10FA600031FC0121204601F039FC012211462046DB
:10FA700001F057FC0121204601F036FCBDE8FE8371
:10FA8000002C014000340140004C01400050014076
:10FA900000540140A404002000B585B001210920D4
:10FAA00001F072F80121880301F04EF8174801F0C7
:10FAB00071FA0021154801F061FA0020ADF800004C
:10FAC0004FF48270ADF802000020ADF8040002206F
:10FAD000ADF806000120ADF808004002ADF80A00BC
:10FAE0001020ADF80C000020ADF80E000720ADF896
:10FAF00010006946054801F087FA0121034801F02A
:10FB00003DFAFF2001F01EFA05B000BD00380040AC
:10FB100010B586B004460121102001F035F801210E
:10FB2000C80401F011F80420ADF8140002208DF88B
:10FB3000160010208DF8170005A9264800F06DFB6F
:10FB40004FF48060ADF8140003208DF816001820E3
:10FB50008DF8170005A91F4800F05FFB4FF4006007
:10FB6000ADF8140004208DF8170005A9194800F01D
:10FB700054FB194802F00EF801940020ADF808007B
:10FB8000ADF80A00ADF80C00ADF810000C20ADF88F
:10FB90000E0001A9104802F09BF8012240F2255105
:10FBA0000D4802F06FF801210B4801F0E6FF40F22A
:10FBB0002551094801F0D2FF00200849A1F8180595
:10FBC000A1F81A0508804880C1F8480FA1F8440F31
:10FBD00006B010BD00100140004C0040D8270020A6
:10FBE00010B586B004460121052000F0CDFF0121AB
:10FBF000880300F0C9FF4FF40070ADF81400032033
:10FC00008DF8160018208DF8170005A91F4800F080
:10FC100004FB4FF48060ADF8140004208DF8170049
:10FC200005A91A4800F0F9FA194801F0B3FF019448
:10FC30000020ADF80800ADF80A00ADF80C00ADF8F2
:10FC400010000C20ADF80E0001A9114802F040F898
:10FC5000012240F225510E4802F014F801210C480F
:10FC600001F08BFF40F22551094801F077FF002099
:10FC70000849A1F81805A1F81A0508804880C1F8BC
:10FC8000480FA1F8440F06B010BD00000008014065
:10FC9000003801404009002010B586B0044601211B
:10FCA000092000F071FF0121880400F04DFF4FF49E
:10FCB0008060ADF8140003208DF8160018208DF830
:10FCC000170005A91F4800F0A8FA4FF40060ADF82E
:10FCD000140004208DF8170005A91A4800F09DFAB9
:10FCE000194801F057FF01940020ADF80800ADF865
:10FCF0000A00ADF80C00ADF810000C20ADF80E00B5
:10FD000001A9114801F0E4FF012240F225510E48FB
:10FD100001F0B8FF01210C4801F02FFF40F22551FE
:10FD2000094801F01BFF00200849A1F81805A1F8B7
:10FD30001A0508804880C1F8480FA1F8440F06B0A2
:10FD400010BD0000000C0140004800408C1800204D
:10FD500010B504F0C1F80348016803A0FFF75EF98D
:10FD600010BD000024370020617070E78988E69C90
:10FD7000ACEFBC9A25640D0A0000000010B5FFF737
:10FD80006DFD02F0E5F8042000F05EFEE0B9FFF73B
:10FD900041FDFFF75DF94FF4E130FFF721FF4FF42C
:10FDA000E130FFF779FF4FF4E130FFF7B1FEFFF7E5
:10FDB00073FEFFF71DFD4FF47A71C806FFF7F0FDE3
:10FDC00001210248FFF7ECFD10BD000000040040D7
:10FDD00010B502A0FFF722F910BD00003E42757376
:10FDE0004661756C745F48616E646C65720D0A00E3
:10FDF00010B504460B4804654CB104210A4800F0D4
:10FE0000F1FA4FF48071094800F0EEFA08E004219D
:10FE1000054800F0E9FA4FF48071044800F0E2FA76
:10FE200010BD0000243700200008014000180140E8
:10FE300010B502A0FFF7F2F810BD00003E444D419E
:10FE4000315F4368616E6E656C335F495251486142
:10FE50006E646C65720D0A0010B54FF4003000F04E
:10FE600027F838B14FF4003000F008F800210248BC
:10FE700000F012F810BD00005800024000F0805160
:10FE800011B10349086001E0024948607047000071
:10FE9000040402400000024021B1026842F0010265
:10FEA000026004E002684FF6FE731A400260704779
:10FEB00001460020002201F0805313B1054B1A685F
:10FEC00001E0054B1A6802EA01030BB1012000E0D2
:10FED00000207047000402400000024010B502A05C
:10FEE000FFF79CF810BD00003E44656275674D6FDA
:10FEF0006E5F48616E646C65720D0A0042F21071AB
:10FF0000884200D900E0014608464FF4FA514843C0
:10FF100004E001E000BF401E0028FBD1011EA0F15B
:10FF20000100F6D17047000010B503A0FFF776F886
:10FF3000012000F00BF810BD3E45585449305F4990
:10FF4000525148616E646C65720D0A000149086087
:10FF50007047000014040140002123498279002ADF
:10FF60003AD00A46126803689A430B461A600A1D83
:10FF7000126803689A430B1D1A60027911440A68DB
:10FF800003681A430A60184A0832126803689A43E1
:10FF9000154B08331A601A1D126803689A43124BF6
:10FFA0000C331A604279102A0ED11A1F12680368A6
:10FFB0001A430D4B08331A601A1D126803681A435E
:10FFC000094B0C331A600DE00749427911440A6865
:10FFD00003681A430A6005E0027911440A6803685D
:10FFE0009A430A6070470000000401402DE9F04781
:10FFF00006460F4604244FF0000800254FF4006920
:020000040801F1
:10000000342000F035F8384600F082F8804600F0E1
:10001000E5F800BF0BE009FB056000F02FF804468F
:10002000042C03D0214606A0FEF7F8FF6D1C4545C1
:1000300001D2042CEFD000F061F82046BDE8F08733
:100040003E464C4153485F45726173655061676538
:10005000206973206661696C65642C206572726F1B
:10006000725F6E756D203D2025640D0A0000000052
:100070000149C860704700000020024030B50446C6
:1000800004250F4800F0B6F80546042D16D10D489A
:10009000006940F002000B490861084644610069AC
:1000A00040F040000861064800F0A4F80546054805
:1000B000006941F6FD71084002490861284630BDDB
:1000C000FFFF0F000020024004200B49C96801F027
:1000D000010109B101200EE00749C96801F00401DE
:1000E00009B1022007E00449C96801F0100109B113
:1000F000032000E00420704700200240034800690C
:1001000040F0800001490861704700000020024073
:10011000014600200A46C2F30A031BB1012303EB88
:10012000D22000E0D00A704770B504460D46042680
:100130004FF6FF7000F05EF80646042E12D10A4812
:10014000006940F001000849086125804FF6FF7002
:1001500000F050F806460448006941F6FE71084078
:1001600001490861304670BD0020024078B506465E
:100170000C460425002000904FF6FF7000F03AF87E
:100180000546042D26D11448006940F001001249AB
:10019000086134804FF6FF7000F02CF80546042DFE
:1001A00011D1B01C0090200C009908804FF6FF7010
:1001B00000F020F805460848006941F6FE71084045
:1001C0000549086106E00448006941F6FE710840EF
:1001D00001490861284678BD0020024002480349D1
:1001E000486003484860704723016745002002408B
:1001F000AB89EFCD00B502460423FFF765FF034648
:1002000003E0FFF761FF0346521E012B01D1002AD4
:10021000F7D102B90523184600BD2DE9F041024689
:1002200000250026002000230024002791F803C0A9
:100230000CF00F0591F803C00CF0100CBCF1000F8E
:1002400003D091F802C04CEA050591F800C0BCF15A
:10025000000F31D0146800202BE04FF0010C0CFA95
:1002600000F3B1F800C00CEA03069E4220D18300DF
:100270004FF00F0C0CFA03F7BC4305FA03FC4CEAF1
:10028000040491F803C0BCF1280F06D14FF0010C13
:100290000CFA00FCC2F814C00AE091F803C0BCF1EB
:1002A000480F05D14FF0010C0CFA00FCC2F810C049
:1002B000401C0828D1D31460B1F800C0BCF1FF0F76
:1002C00034DD546800202EE000F1080C4FF00108E6
:1002D00008FA0CF3B1F800C00CEA03069E4221D1E3
:1002E00083004FF00F0C0CFA03F7BC4305FA03FC34
:1002F0004CEA040491F803C0BCF1280F05D100F1C9
:10030000080C08FA0CF8C2F8148091F803C0BCF18C
:10031000480F07D100F1080C4FF0010808FA0CF85B
:10032000C2F81080401C0828CED35460BDE8F0818C
:10033000F0B50A46002300240021002500F0004605
:10034000B6F1004F02D11D4EF16901E01B4E7168FC
:10035000C0F3034583B200F44016B6F5401F08D140
:1003600021F07061154E766826F07066134F7E603E
:1003700012E000F48016B6F5801F06D1032606FAB7
:1003800005F4A14341F0706106E0460D360103FA21
:1003900006F6B14341F0706122B1460D360103FA11
:1003A00006F6314300F00046B6F1004F02D1034E8D
:1003B000F16101E0014E7160F0BD000000000140FC
:1003C0000246002093680B400BB1012000E00020A2
:1003D000704702460020D3680B400BB1012000E0BB
:1003E0000020704741617047016170470AB10161A7
:1003F00000E041617047000005A0FEF70FFE0AA073
:10040000FEF70CFE012080F3138800BF00F0BCF85B
:100410003E486172644661756C745F48616E646CDD
:1004200065720D0A000000003E5265736574206617
:10043000726F6D203A2048617264204661756C7459
:100440002E2E2E0D0A0000004CF6CC40014908600B
:1004500070470000003000404AF6AA2001490860B9
:1004600070470000003000400149486070470000BC
:1004700000300040014988607047000000300040B3
:1004800001490860704700000030004010B502A02C
:10049000FEF7C4FD10BD00003E4D656D4D616E61FF
:1004A00067655F48616E646C65720D0A000000004C
:1004B00010B502A0FEF7B2FD10BD00003E4E4D4942
:1004C0005F48616E646C65720D0A000070B50021B2
:1004D00000230F22C47804B3154C246804F4E064AC
:1004E000C4F5E064210AC1F10403CA40447804FA67
:1004F00003F184781440214309010E4C0678A1557C
:10050000047804F01F050124AC4005786D11AD009E
:1005100005F1E025C5F8004109E0047804F01F0565
:100520000124AC40044D0678761145F8264070BD94
:100530000CED00E000E400E080E100E0024901434E
:10054000024A1160704700000000FA050CED00E05F
:10055000024A0A400243024B1A60704780FFFF1FA5
:1005600008ED00E00648006800F4E0600549084333
:10057000001D03490860BFF34F8F00BFFEE7000076
:100580000CED00E00000FA050648006800F4E060A9
:1005900005490843001D03490860BFF34F8F00BFA2
:1005A000FEE700000CED00E00000FA0500B58DB09C
:1005B00034216846FDF753FEBF48007810B101288A
:1005C00028D13AE0BD484068002832D0BB48808836
:1005D000C0F30720032825D1B84800790B281AD981
:1005E000B7A0FEF71BFD0120BB4981F809040520D7
:1005F00081F808040120B9490870801EB8490880B4
:10060000AE488088B74908800020AC494860012086
:10061000A94908704DE1B4A0FEF700FD0020A749EC
:10062000486046E1B8A0FEF7F9FC0020A349486005
:100630003FE1012004F0BCF93BE1A8480078012823
:1006400007D10020A54908704FF4C831B648FFF71C
:10065000CDFCA348B0F90000401C002842D19E48C0
:1006600090F8080400282DDD9B4890F80804401EEF
:10067000994981F808045A208DF8000001208DF86E
:10068000010098490888C11700EB1161090A8DF82B
:10069000021094490888C11700EB11610912A0EB00
:1006A0000121C9B28DF803100621684602F0FCFA58
:1006B000824841689DA0FEF7B1FC0621684603F020
:1006C000F5FFD3E00520844981F808044FF4FA606F
:1006D00004F06EF99DA0FEF7A1FC00207649087099
:1006E0000DB000BD02F01EFF9C490870084600785E
:1006F00002285ED00846007801285AD008460078C3
:10070000002856D10520744981F8080474480088EF
:10071000401C00B2724908800846B0F900009049B8
:10072000098888423BD18E480088421E6C48B0F947
:100730000000411E8BA0FEF771FC92A0FEF76EFC3C
:10074000794802F035FE012808D1592001F098FCC3
:10075000012080F3108800BFFFF704FF5E4890F887
:100760000904002812DD5C4890F80904401E5A492B
:1007700081F809044FF0FF30594908800520564997
:1007800081F8080401205549087092E0522001F0D8
:1007900077FC012080F3108800BFFFF7E3FE70486C
:1007A0000088421E4E48B0F90000411E6DA0FEF7C1
:1007B00035FC494890F80804002848DD464890F880
:1007C0000804401E444981F808045A208DF80000AE
:1007D00002208DF8010043490888C11700EB116120
:1007E000090A8DF802103F490888C11700EB116112
:1007F0000912A0EB0121C9B28DF803103849B1F9F3
:100800000000C11700EB1161090A8DF8041034498A
:10081000B1F90000C11700EB11610912A0EB012131
:10082000C9B28DF805100821684602F03DFA5CA0B7
:10083000FEF7F4FB2A48B0F900202A48018859A0A5
:10084000FEF7ECFB0821684603F030FF0EE00520C0
:10085000214981F808044FF4FA6004F0A9F83BA09C
:10086000FEF7DCFB00201449087022E01A4890F8DB
:100870000804042804D14FF4FA7004F099F817E042
:10088000154890F80804032804D140F2DC5004F025
:100890008FF80DE0104890F80804022804D140F6C3
:1008A000C41004F085F803E04FF4FA7004F080F807
:1008B00000BF00BF00BF13E77D04002024370020E5
:1008C00031E8BF9BE585A54F5441E6A8A1E5BC8F63
:1008D000EFBC815C720A00007300002071000020F0
:1008E0006E0000206800002032E69CACE59CB0E67B
:1008F0009687E4BBB6E697A0E99C804F5441EFBCD5
:10090000815C720A00000000334F544120E7A1AC23
:10091000E4BBB6E78988E69CACE4B88DE58CB9E920
:10092000858DEFBC810D0A0000700208343EE8AFEF
:10093000BBE58F964F5441E69687E4BBB62564E746
:100940009A84E4BFA1E681AF5C720A003E4F544135
:10095000E5A4B1E8B4A50D0A000000007200002073
:100960006A000020E69687E4BBB6E58699E585A592
:10097000E8BF9BE5BAA6EFBC9A256428302D256414
:10098000290D0A00E69687E4BBB6E58699E585A5BC
:10099000E5AE8CE68890EFBC815C720A0000000036
:1009A0003E0D0A003EE8AFBBE58F964F5441E696F8
:1009B00087E4BBB62564E79A84E7ACAC2564E58C94
:1009C00085E695B0E68DAE5C720A000010B5002495
:1009D0004FF48030FFF7BAFA042000F035F80446EF
:1009E000012C18D10EA0FEF719FB0A20FFF786FA9A
:1009F000042000F029F888B100BF0D48006800F419
:100A0000E0600C490843001D09490860BFF34F8F9F
:100A100000BF00BFFEE708A0FEF700FB10BD00000E
:100A20003E505644206C6F772E2E2E0D0A0000008B
:100A30000CED00E00000FA053E505644206869675E
:100A4000682E2E2E0D0A000001460020034A52682F
:100A50000A400AB1012000E0002070470070004009
:100A6000014908617047000000000E420146002065
:100A7000034A106820F0E00008431060704700004F
:100A80000070004070B50546012D02D0022D52D1F4
:100A900028E000202949086001202949C1F8BC014B
:100AA00000240EE0002025492C310860012002F0CE
:100AB00005FA01202249C1F8B40102F0FFF9601CD7
:100AC000C4B2282CEEDB01201C490860052002F08E
:100AD000E9F90121202001F07BFA0121022001F037
:100AE00077FA29E000201749086001201449C1F86D
:100AF000BC0100240EE0002010492C3108600120C8
:100B000002F0DCF901200E49C1F8B40102F0D6F977
:100B1000601CC4B2282CEEDB01200A4908600520C5
:100B200002F0C0F90221202001F052FA0221084609
:100B300001F04EFA00E000BF00BF70BD8881214285
:100B400000802142A481224229B1064AD26902438F
:100B5000044BDA6104E0034AD2698243014BDA6153
:100B6000704700000010024029B1064A1269024392
:100B7000044B1A6104E0034A12698243014B1A6173
:100B8000704700000010024029B1064A92690243F2
:100B9000044B9A6104E0034A92698243014B9A61D3
:100BA000704700000010024029B1064AD268024393
:100BB000044BDA6004E0034AD2688243014BDA60F6
:100BC00070470000001002400348406A40F0807007
:100BD0000149486270470000001002402DE9F041D1
:100BE00000210022002500230026002400278C4637
:100BF000DFF87481D8F8048008F00C0121B10429D1
:100C000007D0082963D109E0DFF86081C0F80080CF
:100C100062E0DFF85881C0F800805DE0DFF84881CD
:100C2000D8F8048008F47012DFF83C81D8F804800A
:100C300008F48035920C0D2A01D0921C00E00622A7
:100C4000DFF82481D8F8048008F00068B8F1000FBC
:100C500000D00F3235B9DFF8188102FB08F8C0F870
:100C6000008033E0DFF80081D8F82C8008F480366B
:100C7000DFF8F480D8F82C8008F00F0808F10104A0
:100C800046B9DFF8E880B8FBF4F808FB02F8C0F8D2
:100C900000801BE0DFF8D080D8F82C80C8F3031860
:100CA00008F10107DFF8C080D8F82C80C8F30328CA
:100CB00008F1020CDFF8B480B8FBF7F808FB0CF879
:100CC000B8FBF4F808FB02F8C0F8008004E0DFF895
:100CD0009C80C0F8008000BF00BFDFF88C80D8F88F
:100CE000048008F0F0010909DFF8888018F8013065
:100CF000D0F8008028FA03F8C0F80480DFF8688094
:100D0000D8F8048008F4E061090ADFF8688018F870
:100D10000130D0F8048028FA03F8C0F80880DFF822
:100D20004880D8F8048008F46051C90ADFF844808C
:100D300018F80130D0F8048028FA03F8C0F80C80C5
:100D4000DFF82480D8F8048008F44041890BDFF8EC
:100D5000288018F80130D0F80C80B8FBF3F8C0F800
:100D60001080BDE8F08100000010024000127A00FF
:100D700000093D002C0500203C05002010B501466F
:100D80000022002300204A11012A02D1094C2368C5
:100D900006E0022A02D1074C236A01E0054C636A8F
:100DA00001F01F02012494401C400CB1012000E01E
:100DB000002010BD0010024010B50AA0FEF72EF969
:100DC000022000F041F860B100F088F8022000F045
:100DD00015F800F083F84FF40030FFF7B7F8FFF78D
:100DE000D3FB10BD3E525443416C61726D5F49525A
:100DF0005148616E646C65720D0A000002490988F1
:100E00008143014A1180704704280040034800884C
:100E100040F010000149088070470000042800409D
:100E2000034800884FF6EF71084001490880704779
:100E300004280040002103480188001F008841EA7F
:100E4000004070471C28004001460020064A1288D6
:100E50000A40D0B2044A121F12880A4012B108B1E7
:100E6000012000E0002070470428004010B50EA0CB
:100E7000FEF7D4F80120FFF7E7FFA0B10120FFF74C
:100E8000BDFF00F02BF8FFF7D5FF0C4988420AD1CF
:100E900000F024F8FFF7BAFF002000F011F800F08E
:100EA0001DF8FFF7BDFF10BD3E5254435F4952513C
:100EB00048616E646C65720D0A000000805101008B
:100EC00000B50246FFF7A2FF100C03490880091D78
:100ED0000A80FFF7A5FF00BD1828004000BF0348A7
:100EE000008800F020000028F9D070470428004056
:100EF00070B50024012011490860002517E000208A
:100F00000E490860012001F0D9FF6006040E0C486C
:100F1000D0F8380110B904F0FE0401E044F00104F7
:100F200001200649086001F0C9FF681CC5B2082D00
:100F3000E5DB012001490860204670BDB4812142F3
:100F40000080214210B5044600BF02210A4800F08B
:100F50004DF80028F9D02146074800F053F800BFAB
:100F60000121054800F042F80028F9D0024800F0BD
:100F700046F8C0B210BD00000038004021B1028820
:100F800042F04002028004E002884FF6BF731A402C
:100F90000280704710B504461148844208D10121EF
:100FA0008014FFF701FE0021A014FFF7FDFD16E0FD
:100FB0000C48844208D101210014FFF7D5FD00211F
:100FC0002014FFF7D1FD0AE00748844207D1012130
:100FD000C013FFF7C9FD0021E013FFF7C5FD10BDE9
:100FE0000030014000380040003C00400246002034
:100FF00013890B400BB1012000E00020704701462F
:10100000888970478181704710B50022028802F4F8
:1010100041520B884C8823438C882343CC8823433C
:101020000C8923434C8923438C892343CC89234354
:101030001A430280838B4FF2FF74234083830B8A11
:10104000038210BD10B500F001F810BD0CB50020F2
:10105000019000905648006840F480305449086080
:1010600000BF5348006800F4003000900198401C15
:101070000190009820B94FF6FF7101988842F0D195
:101080004B48006800F4003010B10120009001E0EE
:10109000002000900098012844D14648006840F0A4
:1010A0001000444908600846006820F0030008600A
:1010B0000846006840F0020008603D4840683C492E
:1010C00048600846406848600846406840F48060D0
:1010D00048600846406820F47C1048600846406834
:1010E00040F4E81048600846006840F080700860EE
:1010F00000BF2F48006800F000700028F9D02C488D
:10110000406820F003002A4948600846406840F0E3
:101110000200486000BF2648406800F00C00082824
:10112000F9D143E02348006840F0100021490860ED
:101130000846006820F0030008600846006840F098
:10114000020008601A48406819494860084640682B
:1011500048600846406840F480604860084640683F
:1011600020F47C1048600846406840F4E010486075
:101170000846006840F08070086000BF0C480068B6
:1011800000F000700028F9D00948406820F0030002
:10119000074948600846406840F00200486000BFC8
:1011A0000348406800F00C000828F9D10CBD00008D
:1011B000001002400020024010B5FDF717F804F0BF
:1011C00093F918B14FF08050024908600020FDF7F4
:1011D00014F810BD04ED00E010B51648006840F0AA
:1011E0000100144908600846406813490840114945
:1011F000486008460068114908400E4908600846E2
:10120000006820F4802008600846406820F4FE0052
:1012100048600846006820F0A05008604FF47F0046
:1012200088600020C862FFF70DFF4FF0006004499E
:10123000086010BD001002400000FFF0FFFFF6FE46
:1012400008ED00E010B50121880700F059F820B33F
:10125000124801880088401C104A1080642902DD71
:101260000020114608800E4801880088401C0C4A66
:10127000108041F28830814202DD00201146088052
:101280000848D0E900305A1C40F100000549C1E986
:1012900000200121880700F024F810BD9A040020E6
:1012A0009C0400201000002010B50121044800F02B
:1012B00027F818B10121024800F013F810BD000012
:1012C0000004004021B1028842F08002028004E064
:1012D00002884FF67F731A4002807047CA43028229
:1012E0007047CA430282704721B1028842F001026E
:1012F000028004E002884FF6FE731A4002807047B5
:1013000030B50246002000230024158A05EA0103B7
:10131000958905EA010413B10CB1012000E0002019
:1013200030BD1AB183890B43838102E083898B43EB
:1013300083817047002202881D4B98420ED01D4BBE
:1013400098420BD0B0F1804F08D01B4B984205D08B
:101350001A4B984202D01A4B984204D14FF68F7321
:101360001A404B881A43174B984207D0164B9842A5
:1013700004D04FF6FF431A40CB881A4302808B8873
:1013800083850B8803850A4B98420BD0094B984202
:1013900008D00E4B984205D00D4B984202D00D4B11
:1013A000984201D10B7A03860123838270470000A3
:1013B000002C0140003401400004004000080040BF
:1013C000000C0040001000400014004000400140AC
:1013D000004401400048014008B501213C20FFF7CE
:1013E000D3FB01210846FFF7CFFB01212548FEF77B
:1013F0009FFF4FF43040ADF8000003208DF802004D
:1014000010208DF8030069461F48FEF706FF4FF4D1
:101410000070ADF8000069461C48FEF7FEFE4FF470
:101420008040ADF8000003208DF8020048208DF8C0
:10143000030069461448FEF7F0FE4FF4A060ADF8D3
:10144000000069461148FEF7E8FE012010490860D7
:101450001049C1F82001104908600F497C39086023
:101460000B49503908600A493431086008492C3169
:101470000860FFF707FB0220FFF704FB0320FFF7DC
:1014800001FB08BD00023000000C014000140140C7
:101490008881214200802242A4812242FFF79CFFE2
:1014A0004FE008212748FEF794FFC0F10100C4B2C5
:1014B000224608212348FEF799FFFEF7CDFFFDF7EE
:1014C00079FA02F0C7FE2048006C41F28831884268
:1014D0000BDD1D48006940F001001B490861002038
:1014E0001A4908701A4908701DE01748006C10F579
:1014F0007A7F11DA144800694FF6FC7108401249EE
:1015000008610846006940F00200086100200F49A8
:1015100008700F49087006E00B4800694FF6FC712F
:101520000840094908610B480078012804D10020CF
:101530000849087003F0ACFBFFF738F8322003F0DD
:1015400037FAAEE700080140243700201E000020D3
:101550000C000020980400201FB52448012300221D
:101560006421009022A004F081F92449C1F8480FB9
:101570002348022300226421009022A004F076F97F
:101580002349C1F8480F2348032300226421009017
:1015900021A004F06BF92349C1F8480F0020224A2A
:1015A0000223CDE90120009303900346C8221FA126
:1015B000214803F071FE0020204A0323CDE90120D9
:1015C000009303900346C8221DA1214803F064FE46
:1015D0000020204A0423CDE9012000930390034614
:1015E000C8221DA11E4803F057FE1FBD2D4501084E
:1015F000756172743154696D657200004009002094
:1016000019460108756172743354696D6572000082
:101610008C18002069410108756172743454696D39
:1016200065720000D8270020000000205461736B11
:101630005F55736172740000C51801080400002032
:101640005461736B5F4D6F6E69746F7200000000C0
:1016500065160108080000205461736B5F494F0054
:101660009D14010816E18C48007860B98B48006829
:101670008B49084400218B4B0CCB801A994102D234
:101680000020FEF7B5FB8848006B38B10120864981
:10169000886202218548FEF7A5FE06E00020824907
:1016A000886202218148FEF79FFE81480078002869
:1016B0007ED0794800780028FAD07B48006900285D
:1016C00076D175480078062873D2DFE800F0AE03C3
:1016D00028405C970120FEF78BFB01217348FEF741
:1016E00083FE4FF400617348FEF77EFE7248006887
:1016F00000F5FA7000216B4AD2E90032C01A91411C
:101700000CD265480078401C634908706548006841
:1017100069490860634800686049086086E0012103
:101720006248FEF75FFE64480068643000215D4A4D
:10173000D2E90032C01A914108D257480078401CC3
:1017400055490870574800685B4908606EE04FF4DF
:1017500000515848FEF748FE57480068DC30002129
:10176000504B0CCB801A99410CD24B480078401C4E
:10177000494908704B4800684F4908604A48808BC7
:101780004E49088052E080214D48FEF72DFE012091
:101790004549C86201214548FEF726FE4FF48051B5
:1017A0004448FEF721FE444800684449098801E0A6
:1017B0003DE03AE008443C3000213A4AD2E90032A8
:1017C000C01A914119D234480078401C324908703F
:1017D00034480068384908604FF480513548FEF7B6
:1017E00001FE4FF400513348FEF7FCFD01212F4864
:1017F000FEF7F8FD00202C49C86217E02E4800686B
:1018000064300021274AD2E90032C01A91410BD23C
:101810004FF400612748FEF7E5FD00201E490870DF
:10182000254908602249087000E000BF2FE02048E9
:10183000007801280ADD1B4800681F490860012064
:101840001549087000201849486320E0164890F8B0
:101850003400174908704FF400611648FEF7C2FDC6
:101860004FF480511348FEF7BDFD4FF4005111486D
:10187000FEF7B8FD01210D48FEF7B4FD80211048A8
:10188000FEF7B0FD00200C490860034908700120F4
:1018900003F08EF8E7E600000C0000202000002096
:1018A000E09304001000002024370020000C0140C9
:1018B0001E00002000140140180000201C00002021
:1018C0000018014008B51EE04FF0FF336A46194684
:1018D000002003F0A7FE0446012C11D1009800F06F
:1018E000010008B100F0B8FA009800F0020008B159
:1018F00000F0E6FA009800F0040008B100F066FA83
:10190000012003F055F8DFE738B540F225512D48A6
:1019100000F08EF901282CD140F22551294800F021
:101920001DF9284800F040FAC1B22748B0F81A253E
:10193000B0F81A05401C244BA3F81A0503F21C50FA
:1019400081541846B0F81A0540F21451884203DB5E
:1019500000201946A1F81A0503F0BCFD044600203A
:101960001949009000232246D1F8480F072103F0BF
:10197000C9FF40F22771134800F05AF9012820D11D
:101980001148008810494988884214D00E480288BE
:101990000088401C0C4B1880181D815C094800F021
:1019A00008FA0948008840F21451884209DB0020F7
:1019B0000549088005E0002240F22771014800F047
:1019C00061F938BD004C0040D827002038B500240C
:1019D00040F225512E4800F02BF901282CD140F27D
:1019E00025512B4800F0BAF8294800F0DDF9C4B2BF
:1019F0002848B0F81A15B0F81A05401C254AA2F874
:101A00001A0502F21C5044541046B0F81A0540F270
:101A10001451884203DB00201146A1F81A0503F097
:101A200059FD054600201B49009000232A46D1F8A5
:101A3000480F072103F066FF002440F22771144885
:101A400000F0F6F8012821D1124800881149498890
:101A5000884215D00F4801880088401C0D4A10802C
:101A6000101D445C21460A4800F0A3F9094800888B
:101A700040F21451884209DB00200649088005E045
:101A8000002240F22771024800F0FCF838BD000047
:101A9000003801404009002038B540F225512D485A
:101AA00000F0C6F801282CD140F22551294800F059
:101AB00055F8284800F078F9C1B22748B0F81A253F
:101AC000B0F81A05401C244BA3F81A0503F21C5069
:101AD00081541846B0F81A0540F21451884203DBCD
:101AE00000201946A1F81A0503F0F4FC0446002072
:101AF0001949009000232246D1F8480F072103F02E
:101B000001FF40F22771134800F092F8012820D11C
:101B10001148008810494988884214D00E4802882C
:101B20000088401C0C4B1880181D815C094800F08F
:101B300040F90948008840F21451884209DB00202E
:101B40000549088005E0002240F22771014800F0B5
:101B500099F838BD004800408C18002010B50022CC
:101B6000002340F66A14A14200D100BF0A120124EA
:101B70009440A3B2DC43048010BD21B1828942F4B9
:101B80000052828104E082894DF6FF731A408281FF
:101B90007047000010B504462048844209D1012155
:101BA0008803FFF701F800214FF48040FEF7FCFFA7
:101BB00032E01B48844209D101214804FEF7D4FFDA
:101BC00000214FF40030FEF7CFFF25E01548844296
:101BD00009D101218804FEF7C7FF00214FF48020BE
:101BE000FEF7C2FF18E01048844209D10121C80461
:101BF000FEF7BAFF00214FF40020FEF7B5FF0BE01F
:101C00000A48844208D101210805FEF7ADFF0021F2
:101C10004FF48010FEF7A8FF10BD0000003801400F
:101C20000044004000480040004C0040005000408C
:101C300070B50246002400230025002040F66A16F5
:101C4000B14200D100BFC1F3421501F01F030126CC
:101C500006FA03F3012D02D19689334006E0022DE6
:101C600002D1168A334001E0968A33400C120126D5
:101C700006FA04F41688344013B10CB1012000E0D8
:101C8000002070BDF0B5034600240026002500208A
:101C900040F66A17B94200D100BF1846C1F342149A
:101CA00001F01F06012707FA06F5012C01D10C30BF
:101CB00004E0022C01D1103000E014301AB10768A2
:101CC0002F43076002E00768AF430760F0BD0000E4
:101CD0002DE9F04786B005460E460024A24600BF17
:101CE000A1460027B08900B100BF2F462C8A4CF6D0
:101CF000FF700440F08804432C82AC894EF6F31048
:101D00000440B08831890843718908430443AC8199
:101D1000AC8A4FF6FF400440B0890443AC8201A86E
:101D2000FEF75CFF1F48874202D1DDF810A001E0FA
:101D3000DDF80CA0A88900F4004040B10AEBCA000D
:101D400000EB0A1031684900B0FBF1F807E00AEB3C
:101D5000CA0000EB0A1031688900B0FBF1F864207A
:101D6000B8FBF0F004012009642101FB1089A88967
:101D700000F4004040B1322000EBC900B0FBF1F0AC
:101D800000F00700044308E0322000EB0910642152
:101D9000B0FBF1F000F00F0004432C8106B0BDE869
:101DA000F08700000038014001468888C0F3080031
:101DB0007047C1F308028280704703B59DF80000A8
:101DC00048709DF80100087002200CBD10B5002479
:101DD000552015490870CC20487000BF06E0134814
:101DE000015DA01C104A1154601C84B21048B0F868
:101DF000440FA042F3DC0E48B0F8440F801C81B2BF
:101E0000094802F053FC002404E000210748015572
:101E1000601C84B20648B0F8440FA042F5DC0020F4
:101E20000349A1F8440F10BD783B00200832002080
:101E3000D827002010B502A0FDF7F0F810BD000073
:101E40003E55736167654661756C745F48616E6489
:101E50006C65720D0A00000010B50024552015496C
:101E60000870BB20487000BF06E01348015DA01C4D
:101E7000104A1154601C84B21048B0F8440FA042BC
:101E8000F3DC0E48B0F8440F801C81B2094802F020
:101E90000DFC002404E0002107480155601C84B2B9
:101EA0000648B0F8440FA042F5DC00200349A1F831
:101EB000440F10BD78370020701300204009002027
:101EC00010B52148B0F8440F022812DD1E4890F8E2
:101ED000300A55280DD11C4890F8310ABB2808D18A
:101EE0001948B0F8440F801E81B2184802F068FB10
:101EF0001EE01548B0F8440F022812DD124890F891
:101F0000300A55280DD1104890F8310ACC2808D154
:101F10000D48B0F8440F801E81B20C4802F06EF9F3
:101F200006E00948B0F8441F00F5236001F0ECF822
:101F300040F2145200210548801EFCF789F9002068
:101F40000149A1F8440F10BD8C180020BE220020CA
:101F50001CB501214FF0C050FEF7F6FD4FF4803064
:101F6000009000208DF8040010208DF8050001205D
:101F70008DF806006846FDF7EFFFE020FEF776FDDE
:101F80000120FEF76DFD4FF48030FDF7DFFF1CBD33
:101F90000020014908607047082C004010B5FFF789
:101FA000F7FF02A0FDF73AF810BD00003EE8BF9B26
:101FB000E585A5E7AA97E58FA3E79C8BE997A8E7B6
:101FC0008B97E4B8ADE696ADEFBC810D0A0000003A
:101FD00070B504460D46012D02D0022D08D103E054
:101FE00000202449086004E000202349086000E044
:101FF00000BF00BF01201F492C310860002620E0EF
:1020000000201C492C310860012000F057FF04F02B
:102010008000802804D1012016493431086003E093
:102020000020144934310860012000F047FF0120EE
:1020300010492C31086000F041FF6006040E701C4E
:10204000C6B2082EDCDB01200A492C3108600B499E
:10205000C1F8BC01012D02D0022D08D103E00120FE
:102060000449086004E001200349086000E000BF63
:1020700000BF70BD88812142A4812242008021429C
:1020800070B50446002500263420FDF7F1FF2546F3
:102090004FF47F4000EA052502F0B0FBFEF79EF802
:1020A0000948FDF7EBFF29460748FEF75FF8FEF702
:1020B00025F802F0C5FB04480668AE4201D10120B4
:1020C00070BD0020FCE7000000B800080FB4084B0A
:1020D00010B504A902AA039800F0F8F8044602A972
:1020E000002000F095FC204610BC5DF814FB0000B9
:1020F000112A01087CB5044600201D461646002919
:102100000BD0491ECDE90041044B6A4629463046B2
:1021100000F0DCF8009A002111707CBDFB29010859
:1021200002E008C8121F08C1002AFAD170477047A0
:10213000002001E001C1121F002AFBD1704700F00E
:10214000010181F3138870472DE9FF5F82B0002100
:10215000DDE90430020DDDF840B0034318D044F649
:102160001050A2F2FF3242431514119801281FD0DB
:10217000A5EB0B00401C5FEA000A4FF000064E4F33
:10218000DFF83891B046504615D5CAF1000413E087
:10219000119801244AA3012801D16FEA0B0102988A
:1021A000119AC0E90031C0E9024206B0BDE8F09FD3
:1021B000CBF10000DFE704460021404A491842EB1A
:1021C0000450CDE9001012E0E00707D032463B464C
:1021D00040464946FCF727F98046894632463B4649
:1021E00010461946FCF71FF906460F466410002CEE
:1021F000EAD1DDE90401DDE90023BAF1000F06DAD6
:10220000FCF711F942464B46FCF70DF905E0FCF7E7
:102210007CF942464B46FCF778F904460E4600220C
:10222000284BFCF771FB03D84FF0FF30014607E065
:102230000022254B20463146FCF74EF8FCF74CFBBC
:10224000102409E0002C0ADB0A220023FCF74EFAD6
:10225000039B30321A55641E50EA0102F2D1641C0D
:10226000039AC4F111031444119A012A03D00122E4
:1022700008430DD10AE0084304D000204FF0110BB1
:10228000119072E7A3EB0B056D1E0DE05B4504DDBD
:102290004FF0000205F1010504E003DA4FF00002FF
:1022A000A5F10105002AECD002981199C0E902318C
:1022B000C0E9004579E70000000014400000F03F4D
:1022C000300000000000F0430000E03F2DE9FF4F28
:1022D00095B09B468946064600250FE2252877D112
:1022E00000242746F84A0121059400E0044316F82B
:1022F000013F203B01FA03F01042F7D130782A2841
:1023000011D06FF02F033078A0F13002092A16D8CF
:10231000059A44F0020402EB820203EB42021044ED
:10232000761C0590EFE759F8042B0592002A03DA92
:10233000504244F40054059044F00204761C307876
:102340002E2816D116F8010F44F004042A280DD0C7
:102350006FF02F023078A0F13003092B09D807EB7A
:10236000870302EB4303C718761CF3E759F8047B95
:10237000761C30786C280FD006DC4C2817D06828E3
:102380000DD06A2814D104E0742810D07A280FD117
:102390000DE044F400140AE044F4801401E044F435
:1023A00040147278824202D104F58014761C761CA7
:1023B000307866280BD013DC582877D009DC002849
:1023C00075D04528F6D04628F4D047281AD19DE18B
:1023D00018E0632835D0642879D0652812D195E1BA
:1023E000702873D008DC6728F1D069286FD06E2878
:1023F0000DD06F2806D1B5E073282CD0752875D084
:10240000782874D05A46179990476D1C75E1C4F32B
:102410000250022809D003280DD0D9F80010042852
:102420000DD00D6009F1040967E1D9F80010EA1731
:10243000C1E90052F6E7D9F800100D80F2E70D70FF
:10244000F0E719F8041B8DF8001000208DF801004A
:10245000EA46012003E059F804AB4FF0FF30610772
:102460004FF0000102D40DE008F101018846B942A5
:102470000FDA8045F8DB1AF808100029F4D108E0DB
:1024800008F1010188468142FADB1AF80810002998
:10249000F6D105985B46A0EB080721463846179A07
:1024A00000F094FA284400EB080507E04DE029E12C
:1024B0000DE01AF8010B5A4617999047B8F1010838
:1024C000F7D25B4621463846179A13E142E00A22CA
:1024D0000092C4F302524FF0000A022A08D059F8C1
:1024E00004CB032A4FEAEC710AD00DE029E02AE080
:1024F00009F1070121F00702F2E802C1914609E063
:102500000FFA8CFC4FEAEC71042A03D14FFA8CFCD1
:102510004FEAEC71002907DA0A460021DCF1000CD1
:1025200061EB02012D2202E0220504D52B228DF859
:102530000420012203E0E20701D02022F7E79046C1
:1025400059E00A2102E010220DE010214FF0000AAC
:1025500000910BE010224FF0000A44F00404082719
:10256000009203E008224FF0000A0092C4F30252E6
:10257000022A05D059F804CB0021032A08D009E02B
:1025800009F1070121F00702F2E802C1914605E0D6
:102590001FFA8CFC042A01D10CF0FF0C4FF000084C
:1025A000220728D5702806D0009B83F0100353EA39
:1025B0000A0305D00EE040228DF80420012208E035
:1025C0005CEA010206D030228DF804208DF8050067
:1025D00002229046009B83F0080353EA0A030AD1C3
:1025E0005CEA010201D1620705D530228DF8042092
:1025F0004FF001087F1E582804D034A003900EA885
:1026000002900DE036A0F9E753466046009AFCF7C9
:102610006DF884460398825C0298401E0290027016
:102620005CEA0100F0D1029806A9081A00F1200A1C
:10263000600702D524F4803400E00127574502DD0D
:10264000A7EB0A0000E0002000EB0A0100900598CB
:102650004144401A0590E00306D45B462146179A90
:10266000059800F0B3F90544002706E001A85A4692
:10267000C05D179990476D1C7F1C4745F6DBE00352
:102680000CD55B462146179A059800F09FF9054442
:1026900004E030205A46179990476D1C0099481E57
:1026A00000900029F5DC08E0029802995A4600786B
:1026B000491C0291179990476D1CBAF10001AAF1CB
:1026C000010AF1DC65E100000928010030313233F4
:1026D000343536373839616263646566000000005E
:1026E0003031323334353637383941424344454648
:1026F0000000000000F058F90544761C30780028EE
:102700007FF4ECAD19B02846BDE8F08F620700D425
:10271000062709F1070222F0070CFCE80223E14634
:1027200003F000485FEA080C02D00FF2702C0DE0B5
:102730005FEA045C02D50FF2682C07E05FEAC47C14
:1027400002D00FF2602C01E0AFF2700C4FF0FF38B6
:1027500023F00043CDF850C065280CD006DC452896
:1027600009D046281DD047283DD13DE0662818D025
:1027700067287ED138E00021112F01DB112000E015
:10278000781CCDE9000106A90EA8FFF7DDFCDDE904
:102790000F010E9A03910021009207F1010A0491A2
:1027A0004DE04FF000400097CDE9011006A90EA8BA
:1027B000FFF7CAFCDDE90F0203920E9B119900227C
:1027C000DDF80CA00093049211B9791C00EB010A0A
:1027D000B7EB0A0004D4C0F1FF3007F1010A0490FE
:1027E000AAEB0700019044E0012F00DA0127002145
:1027F000112F01DD112000E03846CDE9000106A9C6
:102800000EA8FFF7A1FCDDE90F010E9A039100214C
:1028100004910092BA4621070CD40399514500DA7D
:102820008A46BAF1010F05DD009AAAF10101515C57
:10283000302908D0B84202DA10F1040F06DA01217B
:10284000CDE9011015E0AAF10101E9E7002805DC56
:10285000049901440491AAEB000102E0411C514596
:1028600000DD8A460499401A401C01904FF0004058
:102870000290200704D40198504501DBCDF8048074
:1028800000208DF84F0002980DF14F07B0F1004F76
:1028900025D02B200E9002984FF0020800280CDA69
:1028A000404202902D200E9007E00A210298FBF78B
:1028B00007FF3031029007F8011DB8F10001A8F1BF
:1028C0000108F2DC02980028EFD1791E0E980870FA
:1028D000307800F0200040F0450007F8020D12A803
:1028E000C01B00F107081498007800B1012000EB2C
:1028F0000A01019801EBE07105984144401A401E1D
:102900000590E00306D45B462146179A059800F02F
:102910005DF805441498007818B15A461799904705
:102920006D1CE00324D55B462146179A059800F0FC
:102930004DF805441CE00498002807DBDDE903019D
:10294000884203DD0098405C179901E01799302018
:102950005A469047049805F10105401C04900198DF
:10296000401E019004D12E205A46179990476D1CA5
:10297000BAF10001AAF1010ADDDC05E017F8010B4C
:102980005A46179990476D1CB8F10001A8F101084B
:10299000F4DC5B462146179A0598ABE62D00000053
:1029A0002B000000200000002DE9F0410446002526
:1029B0001E461746880404D405E039462020B04757
:1029C0006D1C641EF9D52846BDE8F0812DE9F04163
:1029D000044600251E469046C80301D5302700E076
:1029E0002027880404D505E041463846B0476D1CD1
:1029F000641EF9D52846BDE8F0814A68002A06D051
:102A00000A68531C0B6010704868401E486070478D
:102A10000A68531C0B6010707047000001460020CC
:102A2000244A914201D1C81442E0234A914201D183
:102A300048143DE0214A914202D14FF4002037E092
:102A40001F4A914202D14FF4801031E01D4A914259
:102A500002D14FF400102BE0B1F1804F01D10120E1
:102A600026E0194A914201D1022021E0174A914201
:102A700001D104201CE0164A914201D1082017E040
:102A8000144A914201D1102012E0134A914201D11F
:102A900020200DE0114A914201D1402008E0104A67
:102AA000914201D1802003E00E4A914200D1881565
:102AB00070470000002C014000340140004C0140F0
:102AC0000050014000540140000400400008004054
:102AD000000C0040001000400014004000180040AE
:102AE000001C00400020004030B504460D46002385
:102AF000E018294600F096F8184483B2E018291D22
:102B000000F090F8184483B2E01805F1080100F0D5
:102B100089F8184483B2E01805F10C0100F082F83E
:102B2000184483B2E01805F1100100F07BF8184456
:102B300083B2E01805F1140100F074F8184483B270
:102B4000E01805F1180100F06DF8184483B2E018A0
:102B500005F11C0100F066F8184483B2E01805F195
:102B6000200100F05FF8184483B2E01805F1240159
:102B700000F058F8184483B2E01805F1280100F07D
:102B800051F8184483B2E01805F12C0100F04AF81E
:102B9000184483B2E01805F1300100F043F81844FE
:102BA00083B2E01805F1340100F03CF8184483B218
:102BB000E01805F1380100F035F8184483B2E01848
:102BC00005F13C0100F02EF8184483B2E01805F13D
:102BD000400100F027F8184483B2E01805F14401E1
:102BE00000F020F8184483B2E01805F1480100F025
:102BF00019F8184483B2E01805F14C0100F012F8FE
:102C0000184483B2E01805F1500100F00BF81844A5
:102C100083B240F20B3002490860184630BD000014
:102C2000243700200246107848705078087002203F
:102C3000704730B50346002054684D68AC4201D05F
:102C400054685C6094688D68AC4203D094689C6062
:102C5000441CA0B2D468CD68AC4203D0D468DC6018
:102C6000441CA0B254694D69AC4201D054695C6106
:102C700094698D69AC4201D094699C61D469CD6935
:102C8000AC4203D0D469DC61441CA0B2146B0D6B60
:102C9000AC4201D0146B1C63546B4D6BAC4202D040
:102CA000546BA41C5C6330BDF0B5FF23FF240025EA
:102CB000022900DCF0BD8E1EB5B20BE06E1EB5B26F
:102CC00010F8016B86EA0302064EB65C86EA04033E
:102CD000054EB45C002DF1D10370401C047000BFA0
:102CE000E8E7000078590108785A0108F0B5024673
:102CF000FF24FF250026022901DC0020F0BD881EEC
:102D000086B20BE0701E86B212F8010B80EA040353
:102D10000A48C05C80EA05040948C55C002EF1D170
:102D20001078A04201D00020E8E7521C1078A84299
:102D300001D00020E2E70120E0E700007859010817
:102D4000785A010838B50546002429195448006806
:102D50000090FFF732F8204484B2291950484068A7
:102D60000090FFF72AF8204484B229194C48806863
:102D70000090FFF722F8204484B229194848C0681F
:102D80000090FFF71AF8204484B2291944480069DA
:102D90000090FFF712F8204484B229194048406996
:102DA0000090FFF70AF8204484B229193C48806952
:102DB0000090FFF702F8204484B229193848C0690E
:102DC0000090FEF7FAFF204484B229193448006AC3
:102DD0000090FEF7F2FF204484B229193048406A7F
:102DE0000090FEF7EAFF204484B229192C48806A3B
:102DF0000090FEF7E2FF204484B229192848C06AF7
:102E00000090FEF7DAFF204484B229192448006BB1
:102E10000090FEF7D2FF204484B229192048406B6D
:102E20000090FEF7CAFF204484B229191C48806B29
:102E30000090FEF7C2FF204484B229191848C06BE5
:102E40000090FEF7BAFF204484B229191448006CA0
:102E50000090FEF7B2FF204484B229191048406C5C
:102E60000090FEF7AAFF204484B229190C48806C18
:102E70000090FEF7A2FF204484B229190848C06CD4
:102E80000090FEF79AFF204484B229190448006D8F
:102E90000090FEF792FF204484B2204638BD000027
:102EA0002437002030B50446002504E04FF47A7042
:102EB00000F004F86D1CA542F8D330BD002106E0F7
:102EC000002201E000BF521C482AFBD3491C81426A
:102ED000F6D370472DE9F04F8DB082468B46002423
:102EE00000200C900B900A900990814608904FF4B6
:102EF0007F4000EA0A2040EA0B0008900898FBF7A0
:102F00007CFB0022514BCDE90201FBF78CFA002239
:102F10004F4BCDE90401FBF7F8FA00224D4BCDE908
:102F20000601FBF7F2FA074688463A4643464A4806
:102F30004A49FBF778FA3A464346CDE90401484846
:102F40004849FBF770FA3A464346CDE90001FBF7E2
:102F50006AFACDE90201DDE90423FBF7BDF9424A33
:102F6000424BCDE90601FBF7B7F905460E460022B4
:102F70003F4B28463146FBF756FACDE90601FBF7F1
:102F80007CFB81463B480068484503D33A480DB076
:102F9000BDE8F08F3748D0F86801484502D84FF4B3
:102FA0007A60F4E7002414E0324850F824004845E1
:102FB0000DD3601E2F4951F820000B90084650F8A1
:102FC00024100B98081A0990601EC4B203E0601C1C
:102FD000C4B25B2CE8DB00BF0B98A9EB00000A90A1
:102FE0000998FBF70AFBCDE906010A98FBF705FBF8
:102FF0000022224BCDE90201FBF715FACDE90401CD
:10300000DDE90623FBF781FA05460E460A2C0DDBA7
:1030100028463146FBF712FB01B2A4F10A004FF437
:10302000FA7202FB001000B20C900CE02846314608
:10303000FBF704FB01B2A4F10A004FF4FA7202FBA1
:10304000001000B20C900C98A1E700000000F43FC3
:1030500000001040E0FFEF405BD3BCE394D68A4011
:103060002FDD240681D98B40BC74931804C64940D7
:1030700000408F40785B01080CFEFFFF00407F405E
:1030800010B50120FFF75BF8FCF778FEFCF760FE57
:1030900019488068012806D0022809D003280CD0DE
:1030A000042814D10EE04FF41650FCF7F5FD13E0A0
:1030B0004FF49640FCF7F0FD0EE04FF41640FCF79D
:1030C000EBFD09E04FF4E130FCF7E6FD04E04FF4DE
:1030D0001650FCF7E1FD00BF00BF08A0FBF79EFF04
:1030E000FEF73AFA0120FCF783FE0020FFF727F8ED
:1030F00001F020FD002010BD243700207461736BA7
:1031000020626F6F740D0A002DE9F047C0B00446CD
:103110008A460027B946B84651462046FFF7E6FDE5
:1031200018B9002040B0BDE8F087BAF1040F01DA09
:103130000020F7E720789949C968884201D1012029
:1031400000E00020217809B9012100E000210843B6
:103150002178FF2901D1012100E000210843002846
:103160007ED08F48FFF7EEFD54228C498D48FBF747
:103170005DF86078032802D06078042850D1E178A7
:10318000A07801EB002085B26179207901EB002065
:1031900086B27F2E02DCA819642814DD20788DF811
:1031A0000000607840F080008DF8010001208DF86B
:1031B000020005216846FFF777FD0521684601F00A
:1031C00075FA0520AEE74FF6FF7000EA460900EAFF
:1031D000450820788DF8000060788DF8010009F02E
:1031E000FF008DF80200002708E008EB07006C499B
:1031F000095CF81C0DF80010781C87B24F45F4DB11
:1032000009F1050081B26846FFF74EFD09F105009E
:1032100081B2684601F04AFA09F10500C0B281E7BF
:10322000607806284BD1E178A07801EB002085B2C8
:10323000681C642815DD20788DF80000607840F067
:1032400080008DF8010001208DF8020005216846FC
:10325000FFF72AFD0521684601F028FA052061E7FD
:1032600093E04FF6FF7000EA450820794C4901F8D9
:10327000080061794A4A08F10100115420788DF85C
:10328000000060788DF80100A0788DF80200E078E9
:103290008DF80300104610F808008DF80400114660
:1032A00008F10100085C8DF8050008216846FFF769
:1032B000FBFC0821684601F0F9F9082756E0607820
:1032C000102851D1E178A07801EB002085B2617916
:1032D000207901EB002086B27F2E02DCA819642839
:1032E00014DD20788DF80000607840F080008DF8C3
:1032F000010001208DF8020005216846FFF7D4FC8B
:103300000521684601F0D2F905200BE74FF6FF7062
:1033100000EA450800EA4609002707E0F81D205C9E
:1033200007EB08011E4A5054781C87B24F45F5DB65
:1033300020788DF8000060788DF80100A0788DF875
:103340000200E0788DF8030020798DF804006079A0
:103350008DF8050008216846FFF7A6FC082168469D
:1033600001F0A4F9082701E00020DBE60E490C4833
:10337000FFF7BAFB0C4A0B490848FFF75AFC10B19B
:1033800001200A490870F8B2CCE620785A2803D107
:103390005146204600F0E0FD0020C3E6243700201F
:1033A000783F002078410020CC4100209804002084
:1033B0002DE9F04FC3B007464FF486716846FAF71F
:1033C0004EFF002500244FF0FF08C146A246A34649
:1033D00000BF6FE0002406E004F580701DF80000D7
:1033E0000DF80400641C0A2CF6D307EB05204FF4FB
:1033F00080720DF10A0100F0A3FD4FF4807A0A24D7
:1034000028E0A4F10A001DF80000022821D1A4F14F
:1034100009001DF8000001281BD1A4F108001DF8C7
:103420000000042815D1E01F1DF80000032810D16A
:10343000A01F1DF8000003280BD1601F1DF800001D
:10344000072806D1A4F10A001FFA80FA4FF0010BF9
:1034500003E0641CB4F5857FD3D300BF0A2410E0D9
:10346000AAF101001FFA80FA2046641C1DF8000032
:1034700080EA08061348805D80EA0908124810F8BF
:103480000690BAF1000FEBD1BBF1010F11D1B8F1E9
:10349000000F09D1B9F1000F06D10CA0FBF7BEFD5A
:1034A000012043B0BDE8F08F0FA0FBF7B7FD00206F
:1034B000F7E76D1CB5F5C87F8CD312A0FBF7AEFD06
:1034C0000020EEE778590108785A01084F5441E688
:1034D0009687E4BBB6E6A0A1E9AA8CE68890E58AC7
:1034E0009FEFBC815C720A004F5441E69687E4BBB3
:1034F000B6E6A0A1E9AA8CE5A4B1E8B4A5EFBC8129
:103500005C720A00E69CAAE689BEE588B04F544189
:10351000E69687E4BBB6E7BB93E5B0BEEFBC815C43
:10352000720A000070B5002500241F48D0F804047A
:1035300000282ED01C48D0F80404B0F5007F28D80D
:103540001949D1F80424D1F80014184BC8181649A9
:1035500001F0C6FB1449D1F80424D1F80014134B30
:10356000C818134900F0ECFC00BF0CE00E48015DE8
:103570000F48005D814204D00EA0FBF74FFD0225ED
:1035800006E0601C84B20848D0F80404A042EDD8DC
:1035900003E00DA0FBF742FD012500200249C1F820
:1035A0000404284670BD000073000020007002086B
:1035B00073020020E6A0A1E9AA8CE99499E8AFAFD4
:1035C0002121210D0A000000E995BFE5BAA6E5BC5E
:1035D00082E5B8B82121210D0A00000010B504468B
:1035E0000E48006844600E480068844207D20B48C9
:1035F0000168091D0B48006801F0DAF80CE0074883
:103600000168091D0848006801F0D2F80748006801
:10361000844201D20548046010BD0000DC04002093
:10362000F0040020E4040020E00400200C05002049
:103630002DE9F04105460F461FB9A80000F0B2FB86
:1036400000E03846064656B1582000F0ABFB044671
:103650000CB1266304E0304601F008F900E00024D4
:1036600024B1A900A522206BFAF7F2FD2046BDE89F
:10367000F081000010B501F0C1F810480068C8B929
:103680000F4801F085F80F4801F082F80C480E4908
:1036900008600C480D49086000220C210A2001F046
:1036A000BBFB064908600846006818B9FAF79EFD9A
:1036B00000BFFEE701F0C4F810BD000024050020A3
:1036C00038B300204CB300201C050020200500204A
:1036D00070B523E001F066FA1348006808B90120CC
:1036E00000E00020054602F04DF8BDB901F086F873
:1036F0000D48C068C468201D01F004F80B4800683C
:10370000401E0A4908600A480068401E08490860CF
:1037100001F096F8204600F059F800BF0448006810
:103720000028D7D170BD000010B30020EC040020A9
:10373000E804002070B504460D46206C70B1216C81
:10374000E0680844E0606168E068884201D320686E
:10375000E0602846226CE168FAF768FD70BD2DE94B
:10376000F04104460E4615460027206C40B37DB953
:103770003146226CA068FAF759FD216CA068084414
:10378000A060D4E9011088421AD32068A06017E035
:103790003146226CE068FAF749FD216CE068401A76
:1037A000E0602168E068884203D2216C6068401ABA
:1037B000E060022D04D1A06B10B1A06B401EA0638D
:1037C000A06B401CA0633846BDE8F08110B50446EC
:1037D000206B01F04BF8204601F048F810BD0000C6
:1037E0000146084A126812680AB9012200E0002264
:1037F0000A600A6822B9034A1268D268106800E0B9
:10380000002070471C05002030B54FF4E0431748F6
:1038100000F007042CB1C01D20F00700134C041B5E
:103820001B1B0246124C22600024114D6C60D01804
:10383000083820F007000F4C206000240D4D2D6843
:103840006C600C4D2D682C601146441A4C60094C7C
:1038500024680C60084D4C682C60084D4C682C6046
:103860004FF00044064D2C6030BD00002042002087
:10387000B8040020C0040020C8040020C4040020B4
:10388000CC04002000BFFFF723FF04480068012894
:1038900001D901F05FF800F049FFF4E720B2002001
:1038A0002DE9F04704460F4616469946DDF820807C
:1038B000002507E0795D04F134004155785D00B9D9
:1038C00002E06D1C102DF5D300BF002143200155EF
:1038D000092E00D30826E662201D00F066FF04F1E1
:1038E000180000F062FF2461C6F10900A061646263
:1038F0000020E064206584F85400BDE8F0870000F3
:1039000010B5002407E004EB84010F4A02EB8100AC
:1039100000F03EFF641C092CF5D30C4800F038FF82
:103920000B4800F035FF0B4800F032FF0A4800F06A
:103930002FFF0A4800F02CFF04480949086004489A
:103940000849086010BD000020B20020D4B2002059
:10395000E8B20020FCB2002010B3002024B3002005
:10396000E0040020E404002010B50146164800E001
:10397000006803688B42FBD30246436813448B42C2
:1039800004D143684C682344436001460A464B68AF
:1039900013440468A34211D10C4C03682468A34269
:1039A00008D04B680468646823444B6003681B6854
:1039B0000B6005E0054B1B680B6001E003680B60C2
:1039C000884200D0016010BDB8040020C00400206F
:1039D0002DE9F04104460D4616461F464FF00008FB
:1039E00065602461B5420CD8F01BA169884202D3FE
:1039F0004FF0010811E0211D0948006800F0D8FED1
:103A00000BE0BE4204D2BD4202D34FF0010804E0F5
:103A1000211D0448006800F0CBFE4046BDE8F0815F
:103A2000200500201C05002070B5054600F0E6FECC
:103A3000A86B08B9012400E0002400F001FF204633
:103A400070BD70B5054600F0D9FEA86BE96B8842E1
:103A500001D1012400E0002400F0F2FE204670BDF8
:103A6000F8B505460F4613480068C068C468201DB5
:103A700000F048FEE069012817D1A06941192B46E2
:103A80003A462046FFF7A4FF01280ED10020034646
:103A90002A4601460090204601F034FF06461EB932
:103AA000FAF7A4FB00BFFEE700BF2046616A884723
:103AB000F8BD00001C05002070B586B05DE00398DD
:103AC00000285ADB059C606908B9012000E000204D
